:100000000C9409020C942A020C942A020C942A02E1
:100010000C942A020C94EE050C949A050C942A0276
:100020000C942A020C942A020C942A020C942A02A0
:100030000C942A020C942A020C942A020C942A0290
:100040000C942A020C94D2040C942A020C942A02D6
:100050000C942A020C9475050C942A020C942A0222
:100060000C942A020C942A020C942A020C942A0260
:100070000C942A020C942A020C942A020C942A0250
:100080000C942A020C942A020C942A020C942A0240
:100090000C942A020C942A020C942A020C942A0230
:1000A0000C942A020C942A020C942A020C942A0220
:1000B0000C942A020C942A020C942A020C942A0210
:1000C0000C942A020C942A020C942A020C942A0200
:1000D0000C942A020C942A020C942A020C942A02F0
:1000E0000C942A02084AD73B3BCE016E84BCBFFD6C
:1000F000C12F3D6C74319ABD56833DDA3D00C77FF8
:1001000011BED9E4BB4C3E916BAAAABE0000008090
:100110003F00000000000000000000005F00000041
:100120000000000007000700000000147F147F1487
:10013000000000242A7F2A120000002313086462B2
:100140000000003649552250000000000503000061
:100150000000001C2241000000000041221C0000A1
:10016000000000082A1C2A0800000008083E0808B1
:10017000000000A060000000000000080808080857
:100180000000006060000000000000201008040271
:100190000000003E5149453E00000000427F400003
:1001A0000000006251494946000000224149493699
:1001B0000000001814127F10000000274545453943
:1001C0000000003C4A494930000000017109050364
:1001D0000000003649494936000000064949291EF9
:1001E000000000003636000000000000AC6C00008B
:1001F000000000081422410000000014141414141C
:10020000000000412214080000000002015109060C
:10021000000000324979413E0000007E0909097E54
:100220000000007F494949360000003E414141221B
:100230000000007F4141221C0000007F49494941E4
:100240000000007F090909010000003E4141517290
:100250000000007F0808087F000000417F41000087
:100260000000002040413F010000007F08142241AF
:100270000000007F404040400000007F020C027FF1
:100280000000007F0408107F0000003E4141413E15
:100290000000007F090909060000003E4151215E6F
:1002A0000000007F0919294600000026494949320B
:1002B00000000001017F01010000003F4040403F7D
:1002C0000000001F2040201F0000003F4038403F3A
:1002D00000000063140814630000000304780403A2
:1002E00000000061514945430000007F414100008A
:1002F000000000020408102000000041417F0000BF
:100300000000000402010204000000808080808060
:100310000000000102040000000000205454547842
:100320000000007F4844443800000038444428005E
:10033000000000384444487F0000003854545418EA
:10034000000000087E09020000000018A4A4A47C9C
:100350000000007F08040478000000007D00000019
:1003600000000080847D00000000007F1028440011
:10037000000000417F4000000000007C0418047869
:100380000000007C08047C00000000384444380071
:10039000000000FC24241800000000182424FC00A5
:1003A000000000007C0804000000004854542400B1
:1003B000000000047F4400000000003C40407C003E
:1003C0000000001C2040201C0000003C4030403C4D
:1003D00000000044281028440000001CA0A07C005D
:1003E0000000004464544C44000000083641000002
:1003F000000000007F0000000000004136080000FF
:1004000000000002010102010000000205050200D7
:10041000000011241FBECFEFD1E2DEBFCDBF00E050
:100420000CBF12E0A0E0B2E0E8E9FCE100E00BBFA5
:1004300002C007900D92A23CB107D9F724E0A2ECCC
:10044000B2E001C01D92AC30B207E1F70E94420653
:100450000C944A0E0C9400000F931F936091F203CA
:100460007091F3038091F4039091F5030091F203EE
:100470001091F3032091F4033091F5036017710795
:100480008207930759F71F910F9108958093BB003E
:1004900084E88093BC008091BC0087FFFCCF8091F2
:1004A000B900887F883221F0803321F082E00895FE
:1004B00080E0089581E0089594EA9093BC009091C3
:1004C000BC0097FFFCCF9091B900987F983091F4D1
:1004D0008093BB0084E88093BC008091BC0087FFC0
:1004E000FCCF8091B900887F883131F0803231F0C3
:1004F00083E0089580E0089581E0089582E0089502
:10050000CF93C82F88E70E945C0280E40E944602D5
:100510008C2F0E94460284E98093BC008091BC002D
:1005200084FDFCCFCF910895CF93C82F88E70E9418
:100530005C0280E00E9446028C2F0E94460284E901
:100540008093BC008091BC0084FDFCCFCF910895C6
:10055000CF93C62F80550E9494028C2F880F880F4E
:10056000880F88700E94940228E0C29FC001112465
:1005700024E0959587952A95E1F78F70805FCF915C
:100580000C949402FF920F931F93CF93DF93EC018F
:10059000F62E642F8F2D0E94A802F394888181117A
:1005A00006C0DF91CF911F910F91FF9008958A307F
:1005B00029F4219660E08F2D0E94A80210E000E04F
:1005C000E8810E2E000CFF0BB09783E0EE0FFF1FAB
:1005D0008A95E1F7E00FF11FEE5EFE4F84910E94D5
:1005E00080020F5F1F4F0830110551F72196D6CFBB
:1005F000CF93DF93C0E060E08C2F0E94A802D0E090
:1006000080E00E948002DF5FD038D1F7CF5FC83032
:1006100091F7DF91CF9108950E94F80241E050E0F8
:1006200062E070E084E292E00E94C20242E050E0A8
:1006300064E070E082E392E00E94C20244E050E095
:1006400065E070E08EE392E00C94C202DF92EF92DC
:10065000FF920F931F93CF93DF9300D000D01F9290
:100660001F92CDB7DEB78C01CB0177FF1FC02DE203
:10067000D8012C939195819591090F5F1F4F20E030
:100680003AE0E32EF12CDD24D394D20EE1E0F0E049
:10069000EC0FFD1FE20FF11DB7010E94FD0D805D03
:1006A0008083CB012D2D009771F706C0009739F795
:1006B00080E38983DD24D394D8018D2D811112C06C
:1006C000F801ED0DF11D108228960FB6F894DEBFEB
:1006D0000FBECDBFDF91CF911F910F91FF90EF9093
:1006E000DF900895815021E030E02C0F3D1F280F4E
:1006F000311DF90190819D93E1CF8F929F92AF922E
:10070000BF92CF92DF92EF92FF920F931F93CF93FE
:10071000DF93CDB7DEB7A0970FB6F894DEBF0FBE5C
:10072000CDBF0E94F80250E040E070E060E08CE550
:1007300092E00E94C20286E0E4E0F2E0DE0151961F
:1007400001900D928A95E1F7FE0177968AE0DF012C
:100750001D928A95E9F78090FD039090FE03A0908A
:10076000FF03B0900004C501B4010E94050C6B01A9
:10077000072E000C880B990B0E943D0C9B01AC01CD
:10078000C501B4010E94AF0A20E030E040E251E42C
:100790000E94210D0E94050C8B0177FF04C00027E9
:1007A0001127061B170BB601CE0146960E942603A1
:1007B000CE014696FC01019620812111FBCF8EE2ED
:1007C0008083C8016AE070E00E94FD0D805D818336
:1007D00012826CE672E0CE0141960E943F0E50E01C
:1007E00040E062E070E0CE0141960E94C20288E0E3
:1007F000E4E1F2E0DE01119601900D928A95E1F7B5
:10080000FE01399688E0DF011D928A95E9F7609133
:1008100001047091020480910304909104040E94E9
:10082000050CCE0108960E9426036EE672E0CE010A
:1008300001960E943F0E50E040E063E070E0CE0180
:1008400001960E94C20250E040E065E070E083E75C
:1008500092E00E94C20280910504909106048130CA
:10086000910541F1029719F58FE492E046E050E0DE
:1008700065E070E00E94C20250E040E067E070E096
:1008800089E792E00E94C202A0960FB6F894DEBFFC
:100890000FBECDBFDF91CF911F910F91FF90EF90D1
:1008A000DF90CF90BF90AF909F908F90089587E595
:1008B00092E0DCCF87E492E0D9CF1F93CF93DF9310
:1008C000CDB7DEB768970FB6F894DEBF0FBECDBFC9
:1008D000182F0E94F80241E050E061E070E08AE8E1
:1008E00092E00E94C202612F70E0CE0101960E9448
:1008F000260369E972E0CE0101960E943F0E62E391
:1009000070E0CE0141960E942603BE016F5E7F4FCC
:10091000CE0101960E943F0E44E050E063E070E09B
:10092000CE0101960E94C20224E6129FC00111244A
:1009300062E370E00E94FD0D7727CE0101960E94D0
:1009400026036CE672E0CE0101960E943F0E46E05F
:1009500050E065E070E0CE0101960E94C202689608
:100960000FB6F894DEBF0FBECDBFDF91CF911F91C0
:100970000895019708F40895EFE9FFE03197F1F742
:1009800000C00000F6CFCF93DF93C2E0D1E0288112
:10099000206228830E94B90488818F7D8883DF913B
:1009A000CF9108951F920F920FB60F9211240BB69C
:1009B0000F922F933F938F939F93AF93BF93EF9398
:1009C000FF938091FC038F5F8093FC03843090F051
:1009D0001092FC038091FB0391E089278093FB0335
:1009E0008091FB03882309F446C080910201806452
:1009F000809302018091F9039091FA03803491056C
:100A0000F0F5E0910202F09103028091F9039091D8
:100A1000FA039C012F5F3F4F3093FA032093F903B1
:100A2000880F991FE80FF91F2C9886E08EBD0DB432
:100A300007FEFDCF8EB51EBC0DB407FEFDCF8EB5F3
:100A40008F701EBC0DB407FEFDCF9EB52C9A892772
:100A50009827892791838083FF91EF91BF91AF9170
:100A60009F918F913F912F910F900BBE0F900FBED2
:100A70000F901F901895809102018F7BB9CF8091C4
:100A8000F803882371F08091F6039091F7030196A3
:100A90009093F7038093F6031092FA031092F903F0
:100AA000DBCF8091020290910302209100023091ED
:100AB000010230930302209302029093010280937B
:100AC00000028091F2039091F303A091F403B0919E
:100AD000F5038093EE039093EF03A093F003B0939C
:100AE000F10381E08093F803D7CF1F920F920FB6E6
:100AF0000F9211248F939F93AF93BF938091F20332
:100B00009091F303A091F403B091F5030196A11D18
:100B1000B11D8093F2039093F303A093F403B09379
:100B2000F503BF91AF919F918F910F900FBE0F90E2
:100B30001F9018951F920F920FB60F9211240BB6AB
:100B40000F92CF92DF92EF92FF920F931F932F930A
:100B50003F934F935F936F937F938F939F93AF9345
:100B6000BF93EF93FF930E942C020091C603109154
:100B7000C7032091C8033091C9036B017C01C01ADF
:100B8000D10AE20AF30A97018601053F11402105C7
:100B9000310558F021E02093CB036093C603709396
:100BA000C7038093C8039093C903FF91EF91BF914E
:100BB000AF919F918F917F916F915F914F913F91F5
:100BC0002F911F910F91FF90EF90DF90CF900F909A
:100BD0000BBE0F900FBE0F901F9018951F920F9293
:100BE0000FB60F9211240BB60F92CF92DF92EF92B5
:100BF000FF920F931F932F933F934F935F936F93A6
:100C00007F938F939F93AF93BF93EF93FF930E9434
:100C10002C020091C2031091C3032091C4033091B0
:100C2000C5036B017C01C01AD10AE20AF30A9701DD
:100C30008601093C11052105310558F021E020937A
:100C4000CA036093C2037093C3038093C403909359
:100C5000C503FF91EF91BF91AF919F918F917F91CC
:100C60006F915F914F913F912F911F910F91FF9045
:100C7000EF90DF90CF900F900BBE0F900FBE0F90B4
:100C80001F901895CF93DF93CDB7DEB7CE58D1091B
:100C90000FB6F894DEBF0FBECDBF80910101806416
:100CA00080930101809102018F7B80930201249A3D
:100CB0002C9A229A219A239881E58CBD82E084BDEA
:100CC00093E095BD99EF97BD80936E0010928000E0
:100CD00088E0809381008FEC97E090938900809367
:100CE000880010928500109284001092F8031092F0
:100CF000FA031092F9031092FC031092FB03109276
:100D0000F7031092F603089A109A2FEF33ED40E3A1
:100D1000215030404040E1F700C0000082E1809364
:100D2000B8008091B9008C7F8093B90085E08093F2
:100D3000BC008EEA0E94940285ED0E94940280E835
:100D40000E94940288EA0E9494028FE30E94940217
:100D500083ED0E94940280E00E94940280E40E944D
:100D600094028DE80E94940284E10E94940280E241
:100D70000E94940280E00E94940281EA0E94940200
:100D800088EC0E9494028AED0E94940282E10E9403
:100D9000940281E80E9494028FEC0E94940289EDF3
:100DA0000E94940281EF0E9494028BED0E949402B3
:100DB00080E40E94940284EA0E94940286EA0E94DF
:100DC00094028FEA0E9494020E94F8026C98749A2E
:100DD0006D98759A80916A00826080936A00809114
:100DE0006A008E7F80936A00EC9A80916A00886026
:100DF00080936A0080916A008B7F80936A00ED9AED
:100E000080910101806280930101809102018F7DB8
:100E100080930201E8EDF3E089E0DF011D928A95FD
:100E2000E9F71092E1031092E20378940E94F8022D
:100E300041E050E061E070E08DE992E00E94C20282
:100E400042E050E063E070E08CEA92E00E94C2026F
:100E500043E050E065E070E088EB92E00E94C2025F
:100E600084E690E00E94C30484E690E00E94B90406
:100E700084E690E00E94C30484E690E00E94B904F6
:100E800084E690E00E94C30484E690E00E94B904E6
:100E900080ED97E00E94B9040E940C0302E09E01DD
:100EA0002F573F4FCB57DF4F39832883C558D0404A
:100EB00022242394312C11E00E942C02C957DF4FC9
:100EC000688379838A839B83C758D0408091CA0303
:100ED000882301F18091EC039091ED031092CA03F5
:100EE000892B09F0D7C21092FA031092F9031092DD
:100EF000FC031092FB031092F80380918100816043
:100F00008093810000936F003092ED032092EC03F8
:100F10000E947D038091CB03882339F18091EC03FB
:100F20009091ED031092CB030197F9F41092D8033E
:100F30001092D9031092DA031092DB031092DC03B3
:100F40001092DD031092DE031092DF031092E20391
:100F50001093E1031092E00342E050E05093ED0360
:100F60004093EC0380E00E945D048091F8038823A5
:100F700009F41CC28091F803882309F417C28091F8
:100F8000000290910102FE0131963F01DC012D919A
:100F90003D91CD01D3012D933D933D01CB57DF4FC3
:100FA00028813981C558D0402A173B0779F74091ED
:100FB000EE035091EF036091F0037091F103CF576E
:100FC000DF4F488359836A837B83C158D040109296
:100FD000F803C12CD12C7601812C912C54018081F5
:100FE0009181880E991EA11CB11C84819581881A5B
:100FF000990AA108B10882819381C80ED91EE11C0B
:10100000F11C86819781C81AD90AE108F10838963F
:10101000E615F70521F7A5019401C501B4010E9469
:10102000ED0D0E943D0C2B013C01A7019601C7016B
:10103000B6010E94ED0D0E943D0C9B01AC01C30165
:10104000B2010E94B00A0E94940D28EC3AE945E3EF
:1010500057E30E94210D2B013C01C501B4010E9400
:101060003D0C4B015C01C701B6010E943D0C90583C
:10107000A50194010E942F0B20EE3EE245E652E4CA
:101080000E94210D6B017C0120E030E0A9010E944B
:101090008E0B87FF0AC020E030E044EB53E4C70129
:1010A000B6010E94B00A6B017C010E942C02C55758
:1010B000DF4F688379838A839B83CB58D04026E6B1
:1010C00036E646E65FE36091CC037091CD038091F4
:1010D000CE039091CF030E94210D4B015C012DECBA
:1010E0003CEC4CEC5DE3C301B2010E94210D9B017D
:1010F000AC01C501B4010E94B00A4B015C018092B1
:10110000CC039092CD03A092CE03B092CF0326E6FB
:1011100036E646E65FE36091D0037091D10380919B
:10112000D2039091D3030E94210D2B013C012DECA1
:101130003CEC4CEC5DE3C701B6010E94210D9B0124
:10114000AC01C301B2010E94B00A6B017C01C092E4
:10115000D003D092D103E092D203F092D303C557CB
:10116000DF4F88819981AA81BB81CB58D040809381
:10117000D4039093D503A093D603B093D703809163
:10118000E003882309F450C02091D8033091D9039B
:101190004091DA035091DB03C501B4010E94AF0A0C
:1011A0004B015C018092CC039092CD03A092CE03C0
:1011B000B092CF032091DC033091DD034091DE0338
:1011C0005091DF03C701B6010E94AF0A6B017C0199
:1011D00020E030E0A901C501B4010E948E0B87FF19
:1011E00008C01092CC031092CD031092CE0310923F
:1011F000CF0320E030E0A901C701B6010E948E0BA9
:1012000087FD59C120E030E044EB53E4C701B6014B
:101210000E94140D87FF5AC1C092D003D092D1030F
:10122000E092D203F092D3038090CC039090CD0350
:10123000A090CE03B090CF038092FD039092FE0366
:10124000A092FF03B0920004C090D003D090D103CD
:10125000E090D203F090D303C0920104D092020434
:10126000E0920304F0920404C557DF4F28813981CE
:101270004A815B81CB58D040209307043093080407
:101280004093090450930A042DEC3CEC4CE45EE3DB
:10129000C501B4010E948E0B87FD23C120E030E020
:1012A00042E852E4C701B6010E948E0B18160CF4F6
:1012B0001BC181E090E09093060480930504109395
:1012C0000B048091EC039091ED03029709F06EC03E
:1012D0008091E103882309F40AC17090E203209110
:1012E000D8033091D9034091DA035091DB03C50153
:1012F000B4010E94B00A4B015C018092D803909225
:10130000D903A092DA03B092DB032091DC03309181
:10131000DD034091DE035091DF03C701B6010E9457
:10132000B00A6B017C01C092DC03D092DD03E09235
:10133000DE03F092DF0381E0870D8093E2038233C6
:1013400008F4D5C020E030E048E452E4C501B4011F
:101350000E94930B6093D8037093D9038093DA03B0
:101360009093DB0320E030E048E452E4C701B6018B
:101370000E94930B6093DC037093DD038093DE0384
:101380009093DF031092E1031093E00386E990E06D
:101390000E94C30484E690E00E94B90486E990E0CC
:1013A0000E94C3043092ED032092EC03E090EC0322
:1013B000F090ED038091E8039091E903A091EA0396
:1013C000B091EB03C957DF4F288139814A815B8196
:1013D000C758D040281B390B4A0B5B0BDA01C901F7
:1013E00083359105A105B105B0F0C957DF4F88815C
:1013F0009981AA81BB81C758D0408093E80390931C
:10140000E903A093EA03B093EB0391E0E916F1043A
:1014100011F40E947D038091E4039091E503A09173
:10142000E603B091E703C957DF4F288139814A812C
:101430005B81C758D040281B390B4A0B5B0BDA0184
:10144000C90184369105A105B10508F435CDC95708
:10145000DF4F88819981AA81BB81C758D040809392
:10146000E4039093E503A093E603B093E703EA94C3
:10147000EF2809F021CD8091050490910604892B75
:10148000D9F5809102018F7D8093020115CD2093C3
:10149000E30312CD80916F008D7F80936F00809168
:1014A00002018F7B809302011092ED031092EC03F6
:1014B0000E940C032FCD20E030E044EB53E4C70141
:1014C000B6010E94B00A6B017C0193CE20E030E0AF
:1014D00044EB53E4C701B6010E94AF0A6B017C01E3
:1014E00091CE90E080E0E7CE82E090E0E4CE809183
:1014F000E2030E945D045ACFC090FD03D090FE032A
:10150000E090FF03F09000042DEC3CEC4CEC5DE32C
:10151000C701B6010E948E0B87FDB3CF20E030E0FB
:1015200040E05FE3C701B6010E94210D0E94050C57
:1015300024E130E0C901861B970B2091E3032F5F64
:101540008230910514F482E090E0281708F49FCFD0
:101550001092E3038091020190E2892795CF5058C1
:10156000BB27AA270E94C70A0C94DA0C0E94CC0C55
:1015700038F00E94D30C20F039F49F3F19F426F480
:101580000C94A20C0EF4E095E7FB0C949C0CE92F54
:101590000E94EB0C58F3BA1762077307840795078C
:1015A00020F079F4A6F50C940D0D0EF4E0950B2EB9
:1015B000BA2FA02D0B01B90190010C01CA01A001A5
:1015C0001124FF27591B99F0593F50F4503E68F100
:1015D0001A16F040A22F232F342F4427585FF3CF41
:1015E000469537952795A795F0405395C9F77EF412
:1015F0001F16BA0B620B730B840BBAF09150A1F05B
:10160000FF0FBB1F661F771F881FC2F70EC0BA0FE0
:10161000621F731F841F48F4879577956795B79568
:10162000F7959E3F08F0B0CF9395880F08F0992763
:10163000EE0F9795879508950E94CC0C60F080E896
:1016400091E009F49EEF0E94D30C28F040E851E0AD
:1016500071F45EEF0CC00C94A20C0C940D0DE92FEC
:10166000E0780E94EB0C40F3092E052AB1F326170F
:1016700037074807590738F00E2E07F8E02569F0BC
:10168000E025E0640AC0EF6307F8009407FADB0185
:10169000B9019D01DC01CA01AD01EF930E94AA0BC3
:1016A0000E94DA0C0E945F0B5F91552339F02BEDFD
:1016B0003FE049E450FD49EC0C94B00A0895DF93F3
:1016C000DD27B92FBF7740E85FE3161617064807F6
:1016D0005B0718F4D92F0E94190D9F938F937F9366
:1016E0006F930E94D40DE4EEF0E00E94A50C0E94DE
:1016F000DA0C2F913F914F915F910E94340DDD23C1
:1017000051F09058A2EA2AED3FE049EC5FE3D0782F
:101710005D270E94C70ADF910C94DA0C0E94780CB6
:1017200008F481E008950E94A70B0C94DA0C0E9443
:10173000D30C58F00E94CC0C40F029F45F3F29F004
:101740000C949C0C51110C940E0D0C94A20C0E9444
:10175000EB0C68F39923B1F3552391F3951B550BCB
:10176000BB27AA2762177307840738F09F5F5F4F74
:10177000220F331F441FAA1FA9F335D00E2E3AF0B3
:10178000E0E832D091505040E695001CCAF72BD0CB
:10179000FE2F29D0660F771F881FBB1F261737071C
:1017A0004807AB07B0E809F0BB0B802DBF01FF274E
:1017B00093585F4F3AF09E3F510578F00C949C0C83
:1017C0000C940E0D5F3FE4F3983ED4F38695779525
:1017D0006795B795F7959F5FC9F7880F911D969507
:1017E000879597F90895E1E0660F771F881FBB1F63
:1017F000621773078407BA0720F0621B730B840B10
:10180000BA0BEE1F88F7E09508950E940C0C6894BF
:10181000B1110C940E0D08950E94F30C88F09F579F
:1018200098F0B92F9927B751B0F0E1F0660F771F04
:10183000881F991F1AF0BA95C9F714C0B13091F0FA
:101840000E940D0DB1E008950C940D0D672F782FB7
:101850008827B85F39F0B93FCCF3869577956795BF
:10186000B395D9F73EF490958095709561957F4F2B
:101870008F4F9F4F0895E89409C097FB3EF49095D1
:101880008095709561957F4F8F4F9F4F9923A9F059
:10189000F92F96E9BB279395F695879577956795E8
:1018A000B795F111F8CFFAF4BB0F11F460FF1BC02C
:1018B0006F5F7F4F8F4F9F4F16C0882311F096E9BF
:1018C00011C0772321F09EE8872F762F05C066236D
:1018D00071F096E8862F70E060E02AF09A95660F26
:1018E000771F881FDAF7880F9695879597F90895DF
:1018F000990F0008550FAA0BE0E8FEEF1616170621
:10190000E807F907C0F012161306E407F50798F088
:10191000621B730B840B950B39F40A2661F0232BA1
:10192000242B252B21F408950A2609F4A140A6951D
:101930008FEF811D811D089597F99F6780E870E002
:1019400060E008959FEF80EC0895DF93CF931F939D
:101950000F93FF92EF92DF927B018C01689406C097
:10196000DA2EEF010E94340DFE01E894A591259135
:10197000359145915591A6F3EF010E94C70AFE01EA
:101980009701A801DA9469F7DF90EF90FF900F912B
:101990001F91CF91DF91089500240A94161617061F
:1019A00018060906089500240A9412161306140650
:1019B00005060895092E0394000C11F4882352F0B3
:1019C000BB0F40F4BF2B11F460FF04C06F5F7F4F6B
:1019D0008F4F9F4F089557FD9058440F551F59F052
:1019E0005F3F71F04795880F97FB991F61F09F3F0C
:1019F00079F087950895121613061406551FF2CF35
:101A00004695F1DF08C0161617061806991FF1CF84
:101A100086957105610508940895E894BB276627AB
:101A20007727CB0197F908950E94780C08F48FEF7F
:101A300008959B01AC0160E070E080E89FE30C94A6
:101A4000930B0E94340D0C94DA0C0E94CC0C38F0ED
:101A50000E94D30C20F0952311F00C949C0C0C9454
:101A6000A20C11240C940E0D0E94EB0C70F3959FA8
:101A7000C1F3950F50E0551F629FF001729FBB2785
:101A8000F00DB11D639FAA27F00DB11DAA1F649F21
:101A90006627B00DA11D661F829F2227B00DA11DD4
:101AA000621F739FB00DA11D621F839FA00D611D5A
:101AB000221F749F3327A00D611D231F849F600D7B
:101AC000211D822F762F6A2F11249F5750409AF0A4
:101AD000F1F088234AF0EE0FFF1FBB1F661F771F30
:101AE000881F91505040A9F79E3F510580F00C94FB
:101AF0009C0C0C940E0D5F3FE4F3983ED4F3869556
:101B000077956795B795F795E7959F5FC1F7FE2B9A
:101B1000880F911D9695879597F9089519F416F4F5
:101B20000C94A20C0C94D80D0E94F30CB8F39923DA
:101B3000C9F3B6F39F57550B87FF0E94E60D0024AB
:101B4000A0E640EA900180585695979528F4805C6D
:101B5000660F771F881F20F026173707480730F4D5
:101B6000621B730B840B202931294A2BA6951794ED
:101B70000794202531254A2758F7660F771F881FBD
:101B800020F026173707480730F4620B730B840BDD
:101B9000200D311D411DA09581F7B901842F915869
:101BA000880F9695879508959B01AC010C94210DA3
:101BB0009F3F31F0915020F4879577956795B795C1
:101BC000880F911D9695879597F9089591505040EB
:101BD000660F771F881FD2F70895DB018F939F93BD
:101BE0000E94110EBF91AF91A29F800D911DA39FE6
:101BF000900DB29F900D1124089597FB072E16F4B7
:101C0000009407D077FD09D00E941C0E07FC05D078
:101C10003EF4909581959F4F0895709561957F4F03
:101C200008950E94300EA59F900DB49F900DA49F23
:101C3000800D911D11240895AA1BBB1B51E107C003
:101C4000AA1FBB1FA617B70710F0A61BB70B881F4C
:101C5000991F5A95A9F780959095BC01CD010895DB
:101C6000A29FB001B39FC001A39F700D811D1124DD
:101C7000911DB29F700D811D1124911D0895FB01CE
:101C8000DC010D900020E9F7119701900D920020E2
:081C9000E1F70895F894FFCF7D
:101C9800C2024203416D703A2000000000000000BB
:101CA8000000000050686173653A200000000000E1
:101CB800000000003D3D2053544F50504544203D06
:101CC8003D00507265737320535441525400746F31
:101CD80020626567696E00464552524F5553004E63
:101CE8004F4E46455252004E4F4E45003D3D204412
:101CF8004554454354494E47203D3D002500206446
:101D0800656700547970653A002D2D2D2D2D2D2DE8
:101D18002D2D2D2D2D2D2D2D2D0043414C49425279
:101D28004154494E472E2E2E00202F20004D455459
:101D3800414C204445544543544F520056657273F4
:101D4800696F6E20322E30004454552033343632B9
:021D5800310058
:00000001FF
